{
  "_format": "hh-sol-artifact-1",
  "contractName": "UtilityNFT",
  "sourceName": "contracts/UtilityNFT.sol",
  "abi": [
    {
      "inputs": [
        {
          "internalType": "string",
          "name": "name_",
          "type": "string"
        },
        {
          "internalType": "string",
          "name": "symbol_",
          "type": "string"
        },
        {
          "internalType": "string",
          "name": "baseURI_",
          "type": "string"
        }
      ],
      "stateMutability": "nonpayable",
      "type": "constructor"
    },
    {
      "anonymous": false,
      "inputs": [
        {
          "indexed": true,
          "internalType": "address",
          "name": "owner",
          "type": "address"
        },
        {
          "indexed": true,
          "internalType": "address",
          "name": "approved",
          "type": "address"
        },
        {
          "indexed": true,
          "internalType": "uint256",
          "name": "tokenId",
          "type": "uint256"
        }
      ],
      "name": "Approval",
      "type": "event"
    },
    {
      "anonymous": false,
      "inputs": [
        {
          "indexed": true,
          "internalType": "address",
          "name": "owner",
          "type": "address"
        },
        {
          "indexed": true,
          "internalType": "address",
          "name": "operator",
          "type": "address"
        },
        {
          "indexed": false,
          "internalType": "bool",
          "name": "approved",
          "type": "bool"
        }
      ],
      "name": "ApprovalForAll",
      "type": "event"
    },
    {
      "anonymous": false,
      "inputs": [
        {
          "indexed": true,
          "internalType": "address",
          "name": "previousOwner",
          "type": "address"
        },
        {
          "indexed": true,
          "internalType": "address",
          "name": "newOwner",
          "type": "address"
        }
      ],
      "name": "OwnershipTransferred",
      "type": "event"
    },
    {
      "anonymous": false,
      "inputs": [
        {
          "indexed": true,
          "internalType": "address",
          "name": "from",
          "type": "address"
        },
        {
          "indexed": true,
          "internalType": "address",
          "name": "to",
          "type": "address"
        },
        {
          "indexed": true,
          "internalType": "uint256",
          "name": "tokenId",
          "type": "uint256"
        }
      ],
      "name": "Transfer",
      "type": "event"
    },
    {
      "inputs": [
        {
          "internalType": "uint256",
          "name": "tokenId",
          "type": "uint256"
        }
      ],
      "name": "activate",
      "outputs": [],
      "stateMutability": "nonpayable",
      "type": "function"
    },
    {
      "inputs": [],
      "name": "activated",
      "outputs": [
        {
          "internalType": "bool",
          "name": "",
          "type": "bool"
        }
      ],
      "stateMutability": "view",
      "type": "function"
    },
    {
      "inputs": [
        {
          "internalType": "address",
          "name": "to",
          "type": "address"
        },
        {
          "internalType": "uint256",
          "name": "tokenId",
          "type": "uint256"
        }
      ],
      "name": "approve",
      "outputs": [],
      "stateMutability": "nonpayable",
      "type": "function"
    },
    {
      "inputs": [
        {
          "internalType": "address",
          "name": "owner",
          "type": "address"
        }
      ],
      "name": "balanceOf",
      "outputs": [
        {
          "internalType": "uint256",
          "name": "",
          "type": "uint256"
        }
      ],
      "stateMutability": "view",
      "type": "function"
    },
    {
      "inputs": [
        {
          "internalType": "uint256",
          "name": "tokenId",
          "type": "uint256"
        }
      ],
      "name": "getApproved",
      "outputs": [
        {
          "internalType": "address",
          "name": "",
          "type": "address"
        }
      ],
      "stateMutability": "view",
      "type": "function"
    },
    {
      "inputs": [
        {
          "internalType": "uint256",
          "name": "tokenId",
          "type": "uint256"
        }
      ],
      "name": "isActivated",
      "outputs": [
        {
          "internalType": "bool",
          "name": "",
          "type": "bool"
        }
      ],
      "stateMutability": "view",
      "type": "function"
    },
    {
      "inputs": [
        {
          "internalType": "address",
          "name": "owner",
          "type": "address"
        },
        {
          "internalType": "address",
          "name": "operator",
          "type": "address"
        }
      ],
      "name": "isApprovedForAll",
      "outputs": [
        {
          "internalType": "bool",
          "name": "",
          "type": "bool"
        }
      ],
      "stateMutability": "view",
      "type": "function"
    },
    {
      "inputs": [
        {
          "internalType": "address",
          "name": "to",
          "type": "address"
        },
        {
          "internalType": "uint256",
          "name": "tokenId",
          "type": "uint256"
        }
      ],
      "name": "mint",
      "outputs": [],
      "stateMutability": "nonpayable",
      "type": "function"
    },
    {
      "inputs": [],
      "name": "name",
      "outputs": [
        {
          "internalType": "string",
          "name": "",
          "type": "string"
        }
      ],
      "stateMutability": "view",
      "type": "function"
    },
    {
      "inputs": [],
      "name": "owner",
      "outputs": [
        {
          "internalType": "address",
          "name": "",
          "type": "address"
        }
      ],
      "stateMutability": "view",
      "type": "function"
    },
    {
      "inputs": [
        {
          "internalType": "uint256",
          "name": "tokenId",
          "type": "uint256"
        }
      ],
      "name": "ownerOf",
      "outputs": [
        {
          "internalType": "address",
          "name": "",
          "type": "address"
        }
      ],
      "stateMutability": "view",
      "type": "function"
    },
    {
      "inputs": [],
      "name": "renounceOwnership",
      "outputs": [],
      "stateMutability": "nonpayable",
      "type": "function"
    },
    {
      "inputs": [
        {
          "internalType": "address",
          "name": "from",
          "type": "address"
        },
        {
          "internalType": "address",
          "name": "to",
          "type": "address"
        },
        {
          "internalType": "uint256",
          "name": "tokenId",
          "type": "uint256"
        }
      ],
      "name": "safeTransferFrom",
      "outputs": [],
      "stateMutability": "nonpayable",
      "type": "function"
    },
    {
      "inputs": [
        {
          "internalType": "address",
          "name": "from",
          "type": "address"
        },
        {
          "internalType": "address",
          "name": "to",
          "type": "address"
        },
        {
          "internalType": "uint256",
          "name": "tokenId",
          "type": "uint256"
        },
        {
          "internalType": "bytes",
          "name": "data",
          "type": "bytes"
        }
      ],
      "name": "safeTransferFrom",
      "outputs": [],
      "stateMutability": "nonpayable",
      "type": "function"
    },
    {
      "inputs": [
        {
          "internalType": "address",
          "name": "operator",
          "type": "address"
        },
        {
          "internalType": "bool",
          "name": "approved",
          "type": "bool"
        }
      ],
      "name": "setApprovalForAll",
      "outputs": [],
      "stateMutability": "nonpayable",
      "type": "function"
    },
    {
      "inputs": [
        {
          "internalType": "bytes4",
          "name": "interfaceId",
          "type": "bytes4"
        }
      ],
      "name": "supportsInterface",
      "outputs": [
        {
          "internalType": "bool",
          "name": "",
          "type": "bool"
        }
      ],
      "stateMutability": "view",
      "type": "function"
    },
    {
      "inputs": [],
      "name": "symbol",
      "outputs": [
        {
          "internalType": "string",
          "name": "",
          "type": "string"
        }
      ],
      "stateMutability": "view",
      "type": "function"
    },
    {
      "inputs": [
        {
          "internalType": "uint256",
          "name": "tokenId",
          "type": "uint256"
        }
      ],
      "name": "tokenURI",
      "outputs": [
        {
          "internalType": "string",
          "name": "",
          "type": "string"
        }
      ],
      "stateMutability": "view",
      "type": "function"
    },
    {
      "inputs": [
        {
          "internalType": "uint256",
          "name": "",
          "type": "uint256"
        }
      ],
      "name": "tokens",
      "outputs": [
        {
          "internalType": "bool",
          "name": "activated",
          "type": "bool"
        }
      ],
      "stateMutability": "view",
      "type": "function"
    },
    {
      "inputs": [
        {
          "internalType": "address",
          "name": "from",
          "type": "address"
        },
        {
          "internalType": "address",
          "name": "to",
          "type": "address"
        },
        {
          "internalType": "uint256",
          "name": "tokenId",
          "type": "uint256"
        }
      ],
      "name": "transferFrom",
      "outputs": [],
      "stateMutability": "nonpayable",
      "type": "function"
    },
    {
      "inputs": [
        {
          "internalType": "address",
          "name": "newOwner",
          "type": "address"
        }
      ],
      "name": "transferOwnership",
      "outputs": [],
      "stateMutability": "nonpayable",
      "type": "function"
    }
  ],
  "bytecode": "0x60806040523480156200001157600080fd5b506040516200340e3803806200340e833981810160405281019062000037919062000316565b828281600090816200004a91906200061a565b5080600190816200005c91906200061a565b5050506200007f62000073620000b560201b60201c565b620000bd60201b60201c565b6000600660146101000a81548160ff0219169083151502179055508060079081620000ab91906200061a565b5050505062000701565b600033905090565b6000600660009054906101000a900473ffffffffffffffffffffffffffffffffffffffff16905081600660006101000a81548173ffffffffffffffffffffffffffffffffffffffff021916908373ffffffffffffffffffffffffffffffffffffffff1602179055508173ffffffffffffffffffffffffffffffffffffffff168173ffffffffffffffffffffffffffffffffffffffff167f8be0079c531659141344cd1fd0a4f28419497f9722a3daafe3b4186f6b6457e060405160405180910390a35050565b6000604051905090565b600080fd5b600080fd5b600080fd5b600080fd5b6000601f19601f8301169050919050565b7f4e487b7100000000000000000000000000000000000000000000000000000000600052604160045260246000fd5b620001ec82620001a1565b810181811067ffffffffffffffff821117156200020e576200020d620001b2565b5b80604052505050565b60006200022362000183565b9050620002318282620001e1565b919050565b600067ffffffffffffffff821115620002545762000253620001b2565b5b6200025f82620001a1565b9050602081019050919050565b60005b838110156200028c5780820151818401526020810190506200026f565b60008484015250505050565b6000620002af620002a98462000236565b62000217565b905082815260208101848484011115620002ce57620002cd6200019c565b5b620002db8482856200026c565b509392505050565b600082601f830112620002fb57620002fa62000197565b5b81516200030d84826020860162000298565b91505092915050565b6000806000606084860312156200033257620003316200018d565b5b600084015167ffffffffffffffff81111562000353576200035262000192565b5b6200036186828701620002e3565b935050602084015167ffffffffffffffff81111562000385576200038462000192565b5b6200039386828701620002e3565b925050604084015167ffffffffffffffff811115620003b757620003b662000192565b5b620003c586828701620002e3565b9150509250925092565b600081519050919050565b7f4e487b7100000000000000000000000000000000000000000000000000000000600052602260045260246000fd5b600060028204905060018216806200042257607f821691505b602082108103620004385762000437620003da565b5b50919050565b60008190508160005260206000209050919050565b60006020601f8301049050919050565b600082821b905092915050565b600060088302620004a27fffffffffffffffffffffffffffffffffffffffffffffffffffffffffffffffff8262000463565b620004ae868362000463565b95508019841693508086168417925050509392505050565b6000819050919050565b6000819050919050565b6000620004fb620004f5620004ef84620004c6565b620004d0565b620004c6565b9050919050565b6000819050919050565b6200051783620004da565b6200052f620005268262000502565b84845462000470565b825550505050565b600090565b6200054662000537565b620005538184846200050c565b505050565b5b818110156200057b576200056f6000826200053c565b60018101905062000559565b5050565b601f821115620005ca5762000594816200043e565b6200059f8462000453565b81016020851015620005af578190505b620005c7620005be8562000453565b83018262000558565b50505b505050565b600082821c905092915050565b6000620005ef60001984600802620005cf565b1980831691505092915050565b60006200060a8383620005dc565b9150826002028217905092915050565b6200062582620003cf565b67ffffffffffffffff811115620006415762000640620001b2565b5b6200064d825462000409565b6200065a8282856200057f565b600060209050601f8311600181146200069257600084156200067d578287015190505b620006898582620005fc565b865550620006f9565b601f198416620006a2866200043e565b60005b82811015620006cc57848901518255600182019150602085019450602081019050620006a5565b86831015620006ec5784890151620006e8601f891682620005dc565b8355505b6001600288020188555050505b505050505050565b612cfd80620007116000396000f3fe608060405234801561001057600080fd5b50600436106101375760003560e01c80636352211e116100b8578063a22cb4651161007c578063a22cb4651461034e578063b260c42a1461036a578063b88d4fde14610386578063c87b56dd146103a2578063e985e9c5146103d2578063f2fde38b1461040257610137565b80636352211e146102a857806370a08231146102d8578063715018a6146103085780638da5cb5b1461031257806395d89b411461033057610137565b806323b872dd116100ff57806323b872dd146101f457806331809dcf1461021057806340c10f191461024057806342842e0e1461025c5780634f64b2be1461027857610137565b806301ffc9a71461013c57806306fdde031461016c578063081812fc1461018a578063095ea7b3146101ba578063186601ca146101d6575b600080fd5b61015660048036038101906101519190611db7565b61041e565b6040516101639190611dff565b60405180910390f35b610174610500565b6040516101819190611eaa565b60405180910390f35b6101a4600480360381019061019f9190611f02565b610592565b6040516101b19190611f70565b60405180910390f35b6101d460048036038101906101cf9190611fb7565b6105d8565b005b6101de6106ef565b6040516101eb9190611dff565b60405180910390f35b61020e60048036038101906102099190611ff7565b610702565b005b61022a60048036038101906102259190611f02565b610762565b6040516102379190611dff565b60405180910390f35b61025a60048036038101906102559190611fb7565b61078f565b005b61027660048036038101906102719190611ff7565b6107a5565b005b610292600480360381019061028d9190611f02565b6107c5565b60405161029f9190611dff565b60405180910390f35b6102c260048036038101906102bd9190611f02565b6107f0565b6040516102cf9190611f70565b60405180910390f35b6102f260048036038101906102ed919061204a565b610876565b6040516102ff9190612086565b60405180910390f35b61031061092d565b005b61031a610941565b6040516103279190611f70565b60405180910390f35b61033861096b565b6040516103459190611eaa565b60405180910390f35b610368600480360381019061036391906120cd565b6109fd565b005b610384600480360381019061037f9190611f02565b610a13565b005b6103a0600480360381019061039b9190612242565b610b21565b005b6103bc60048036038101906103b79190611f02565b610b83565b6040516103c99190611eaa565b60405180910390f35b6103ec60048036038101906103e791906122c5565b610beb565b6040516103f99190611dff565b60405180910390f35b61041c6004803603810190610417919061204a565b610c7f565b005b60007f80ac58cd000000000000000000000000000000000000000000000000000000007bffffffffffffffffffffffffffffffffffffffffffffffffffffffff1916827bffffffffffffffffffffffffffffffffffffffffffffffffffffffff191614806104e957507f5b5e139f000000000000000000000000000000000000000000000000000000007bffffffffffffffffffffffffffffffffffffffffffffffffffffffff1916827bffffffffffffffffffffffffffffffffffffffffffffffffffffffff1916145b806104f957506104f882610d02565b5b9050919050565b60606000805461050f90612334565b80601f016020809104026020016040519081016040528092919081815260200182805461053b90612334565b80156105885780601f1061055d57610100808354040283529160200191610588565b820191906000526020600020905b81548152906001019060200180831161056b57829003601f168201915b5050505050905090565b600061059d82610d6c565b6004600083815260200190815260200160002060009054906101000a900473ffffffffffffffffffffffffffffffffffffffff169050919050565b60006105e3826107f0565b90508073ffffffffffffffffffffffffffffffffffffffff168373ffffffffffffffffffffffffffffffffffffffff1603610653576040517f08c379a000000000000000000000000000000000000000000000000000000000815260040161064a906123d7565b60405180910390fd5b8073ffffffffffffffffffffffffffffffffffffffff16610672610db7565b73ffffffffffffffffffffffffffffffffffffffff1614806106a157506106a08161069b610db7565b610beb565b5b6106e0576040517f08c379a00000000000000000000000000000000000000000000000000000000081526004016106d790612469565b60405180910390fd5b6106ea8383610dbf565b505050565b600660149054906101000a900460ff1681565b61071361070d610db7565b82610e78565b610752576040517f08c379a0000000000000000000000000000000000000000000000000000000008152600401610749906124fb565b60405180910390fd5b61075d838383610f0d565b505050565b60006008600083815260200190815260200160002060000160009054906101000a900460ff169050919050565b610797611206565b6107a18282611284565b5050565b6107c083838360405180602001604052806000815250610b21565b505050565b60086020528060005260406000206000915090508060000160009054906101000a900460ff16905081565b6000806107fc836112a2565b9050600073ffffffffffffffffffffffffffffffffffffffff168173ffffffffffffffffffffffffffffffffffffffff160361086d576040517f08c379a000000000000000000000000000000000000000000000000000000000815260040161086490612567565b60405180910390fd5b80915050919050565b60008073ffffffffffffffffffffffffffffffffffffffff168273ffffffffffffffffffffffffffffffffffffffff16036108e6576040517f08c379a00000000000000000000000000000000000000000000000000000000081526004016108dd906125f9565b60405180910390fd5b600360008373ffffffffffffffffffffffffffffffffffffffff1673ffffffffffffffffffffffffffffffffffffffff168152602001908152602001600020549050919050565b610935611206565b61093f60006112df565b565b6000600660009054906101000a900473ffffffffffffffffffffffffffffffffffffffff16905090565b60606001805461097a90612334565b80601f01602080910402602001604051908101604052809291908181526020018280546109a690612334565b80156109f35780601f106109c8576101008083540402835291602001916109f3565b820191906000526020600020905b8154815290600101906020018083116109d657829003601f168201915b5050505050905090565b610a0f610a08610db7565b83836113a5565b5050565b806008600082815260200190815260200160002060000160009054906101000a900460ff1615610a78576040517f08c379a0000000000000000000000000000000000000000000000000000000008152600401610a6f90612665565b60405180910390fd5b3373ffffffffffffffffffffffffffffffffffffffff16610a98836107f0565b73ffffffffffffffffffffffffffffffffffffffff1614610aee576040517f08c379a0000000000000000000000000000000000000000000000000000000008152600401610ae5906126d1565b60405180910390fd5b60016008600084815260200190815260200160002060000160006101000a81548160ff0219169083151502179055505050565b610b32610b2c610db7565b83610e78565b610b71576040517f08c379a0000000000000000000000000000000000000000000000000000000008152600401610b68906124fb565b60405180910390fd5b610b7d84848484611511565b50505050565b6060610b8e82610d6c565b6000610b9861156d565b90506000815111610bb85760405180602001604052806000815250610be3565b80610bc2846115ff565b604051602001610bd392919061272d565b6040516020818303038152906040525b915050919050565b6000600560008473ffffffffffffffffffffffffffffffffffffffff1673ffffffffffffffffffffffffffffffffffffffff16815260200190815260200160002060008373ffffffffffffffffffffffffffffffffffffffff1673ffffffffffffffffffffffffffffffffffffffff16815260200190815260200160002060009054906101000a900460ff16905092915050565b610c87611206565b600073ffffffffffffffffffffffffffffffffffffffff168173ffffffffffffffffffffffffffffffffffffffff1603610cf6576040517f08c379a0000000000000000000000000000000000000000000000000000000008152600401610ced906127c3565b60405180910390fd5b610cff816112df565b50565b60007f01ffc9a7000000000000000000000000000000000000000000000000000000007bffffffffffffffffffffffffffffffffffffffffffffffffffffffff1916827bffffffffffffffffffffffffffffffffffffffffffffffffffffffff1916149050919050565b610d75816116cd565b610db4576040517f08c379a0000000000000000000000000000000000000000000000000000000008152600401610dab90612567565b60405180910390fd5b50565b600033905090565b816004600083815260200190815260200160002060006101000a81548173ffffffffffffffffffffffffffffffffffffffff021916908373ffffffffffffffffffffffffffffffffffffffff160217905550808273ffffffffffffffffffffffffffffffffffffffff16610e32836107f0565b73ffffffffffffffffffffffffffffffffffffffff167f8c5be1e5ebec7d5bd14f71427d1e84f3dd0314c0f7b2291e5b200ac8c7c3b92560405160405180910390a45050565b600080610e84836107f0565b90508073ffffffffffffffffffffffffffffffffffffffff168473ffffffffffffffffffffffffffffffffffffffff161480610ec65750610ec58185610beb565b5b80610f0457508373ffffffffffffffffffffffffffffffffffffffff16610eec84610592565b73ffffffffffffffffffffffffffffffffffffffff16145b91505092915050565b8273ffffffffffffffffffffffffffffffffffffffff16610f2d826107f0565b73ffffffffffffffffffffffffffffffffffffffff1614610f83576040517f08c379a0000000000000000000000000000000000000000000000000000000008152600401610f7a90612855565b60405180910390fd5b600073ffffffffffffffffffffffffffffffffffffffff168273ffffffffffffffffffffffffffffffffffffffff1603610ff2576040517f08c379a0000000000000000000000000000000000000000000000000000000008152600401610fe9906128e7565b60405180910390fd5b610fff838383600161170e565b8273ffffffffffffffffffffffffffffffffffffffff1661101f826107f0565b73ffffffffffffffffffffffffffffffffffffffff1614611075576040517f08c379a000000000000000000000000000000000000000000000000000000000815260040161106c90612855565b60405180910390fd5b6004600082815260200190815260200160002060006101000a81549073ffffffffffffffffffffffffffffffffffffffff02191690556001600360008573ffffffffffffffffffffffffffffffffffffffff1673ffffffffffffffffffffffffffffffffffffffff168152602001908152602001600020600082825403925050819055506001600360008473ffffffffffffffffffffffffffffffffffffffff1673ffffffffffffffffffffffffffffffffffffffff16815260200190815260200160002060008282540192505081905550816002600083815260200190815260200160002060006101000a81548173ffffffffffffffffffffffffffffffffffffffff021916908373ffffffffffffffffffffffffffffffffffffffff160217905550808273ffffffffffffffffffffffffffffffffffffffff168473ffffffffffffffffffffffffffffffffffffffff167fddf252ad1be2c89b69c2b068fc378daa952ba7f163c4a11628f55a4df523b3ef60405160405180910390a461120183838360016117ca565b505050565b61120e610db7565b73ffffffffffffffffffffffffffffffffffffffff1661122c610941565b73ffffffffffffffffffffffffffffffffffffffff1614611282576040517f08c379a000000000000000000000000000000000000000000000000000000000815260040161127990612953565b60405180910390fd5b565b61129e8282604051806020016040528060008152506117d0565b5050565b60006002600083815260200190815260200160002060009054906101000a900473ffffffffffffffffffffffffffffffffffffffff169050919050565b6000600660009054906101000a900473ffffffffffffffffffffffffffffffffffffffff16905081600660006101000a81548173ffffffffffffffffffffffffffffffffffffffff021916908373ffffffffffffffffffffffffffffffffffffffff1602179055508173ffffffffffffffffffffffffffffffffffffffff168173ffffffffffffffffffffffffffffffffffffffff167f8be0079c531659141344cd1fd0a4f28419497f9722a3daafe3b4186f6b6457e060405160405180910390a35050565b8173ffffffffffffffffffffffffffffffffffffffff168373ffffffffffffffffffffffffffffffffffffffff1603611413576040517f08c379a000000000000000000000000000000000000000000000000000000000815260040161140a906129bf565b60405180910390fd5b80600560008573ffffffffffffffffffffffffffffffffffffffff1673ffffffffffffffffffffffffffffffffffffffff16815260200190815260200160002060008473ffffffffffffffffffffffffffffffffffffffff1673ffffffffffffffffffffffffffffffffffffffff16815260200190815260200160002060006101000a81548160ff0219169083151502179055508173ffffffffffffffffffffffffffffffffffffffff168373ffffffffffffffffffffffffffffffffffffffff167f17307eab39ab6107e8899845ad3d59bd9653f200f220920489ca2b5937696c31836040516115049190611dff565b60405180910390a3505050565b61151c848484610f0d565b6115288484848461182b565b611567576040517f08c379a000000000000000000000000000000000000000000000000000000000815260040161155e90612a51565b60405180910390fd5b50505050565b60606007805461157c90612334565b80601f01602080910402602001604051908101604052809291908181526020018280546115a890612334565b80156115f55780601f106115ca576101008083540402835291602001916115f5565b820191906000526020600020905b8154815290600101906020018083116115d857829003601f168201915b5050505050905090565b60606000600161160e846119b2565b01905060008167ffffffffffffffff81111561162d5761162c612117565b5b6040519080825280601f01601f19166020018201604052801561165f5781602001600182028036833780820191505090505b509050600082602001820190505b6001156116c2578080600190039150507f3031323334353637383961626364656600000000000000000000000000000000600a86061a8153600a85816116b6576116b5612a71565b5b0494506000850361166d575b819350505050919050565b60008073ffffffffffffffffffffffffffffffffffffffff166116ef836112a2565b73ffffffffffffffffffffffffffffffffffffffff1614159050919050565b816008600082815260200190815260200160002060000160009054906101000a900460ff1615611773576040517f08c379a000000000000000000000000000000000000000000000000000000000815260040161176a90612665565b60405180910390fd5b600182146117b6576040517f08c379a00000000000000000000000000000000000000000000000000000000081526004016117ad90612aec565b60405180910390fd5b6117c38585856001611b05565b5050505050565b50505050565b6117da8383611b0b565b6117e7600084848461182b565b611826576040517f08c379a000000000000000000000000000000000000000000000000000000000815260040161181d90612a51565b60405180910390fd5b505050565b600061184c8473ffffffffffffffffffffffffffffffffffffffff16611d28565b156119a5578373ffffffffffffffffffffffffffffffffffffffff1663150b7a02611875610db7565b8786866040518563ffffffff1660e01b81526004016118979493929190612b61565b6020604051808303816000875af19250505080156118d357506040513d601f19601f820116820180604052508101906118d09190612bc2565b60015b611955573d8060008114611903576040519150601f19603f3d011682016040523d82523d6000602084013e611908565b606091505b50600081510361194d576040517f08c379a000000000000000000000000000000000000000000000000000000000815260040161194490612a51565b60405180910390fd5b805181602001fd5b63150b7a0260e01b7bffffffffffffffffffffffffffffffffffffffffffffffffffffffff1916817bffffffffffffffffffffffffffffffffffffffffffffffffffffffff1916149150506119aa565b600190505b949350505050565b600080600090507a184f03e93ff9f4daa797ed6e38ed64bf6a1f0100000000000000008310611a10577a184f03e93ff9f4daa797ed6e38ed64bf6a1f0100000000000000008381611a0657611a05612a71565b5b0492506040810190505b6d04ee2d6d415b85acef81000000008310611a4d576d04ee2d6d415b85acef81000000008381611a4357611a42612a71565b5b0492506020810190505b662386f26fc100008310611a7c57662386f26fc100008381611a7257611a71612a71565b5b0492506010810190505b6305f5e1008310611aa5576305f5e1008381611a9b57611a9a612a71565b5b0492506008810190505b6127108310611aca576127108381611ac057611abf612a71565b5b0492506004810190505b60648310611aed5760648381611ae357611ae2612a71565b5b0492506002810190505b600a8310611afc576001810190505b80915050919050565b50505050565b600073ffffffffffffffffffffffffffffffffffffffff168273ffffffffffffffffffffffffffffffffffffffff1603611b7a576040517f08c379a0000000000000000000000000000000000000000000000000000000008152600401611b7190612c3b565b60405180910390fd5b611b83816116cd565b15611bc3576040517f08c379a0000000000000000000000000000000000000000000000000000000008152600401611bba90612ca7565b60405180910390fd5b611bd160008383600161170e565b611bda816116cd565b15611c1a576040517f08c379a0000000000000000000000000000000000000000000000000000000008152600401611c1190612ca7565b60405180910390fd5b6001600360008473ffffffffffffffffffffffffffffffffffffffff1673ffffffffffffffffffffffffffffffffffffffff16815260200190815260200160002060008282540192505081905550816002600083815260200190815260200160002060006101000a81548173ffffffffffffffffffffffffffffffffffffffff021916908373ffffffffffffffffffffffffffffffffffffffff160217905550808273ffffffffffffffffffffffffffffffffffffffff16600073ffffffffffffffffffffffffffffffffffffffff167fddf252ad1be2c89b69c2b068fc378daa952ba7f163c4a11628f55a4df523b3ef60405160405180910390a4611d246000838360016117ca565b5050565b6000808273ffffffffffffffffffffffffffffffffffffffff163b119050919050565b6000604051905090565b600080fd5b600080fd5b60007fffffffff0000000000000000000000000000000000000000000000000000000082169050919050565b611d9481611d5f565b8114611d9f57600080fd5b50565b600081359050611db181611d8b565b92915050565b600060208284031215611dcd57611dcc611d55565b5b6000611ddb84828501611da2565b91505092915050565b60008115159050919050565b611df981611de4565b82525050565b6000602082019050611e146000830184611df0565b92915050565b600081519050919050565b600082825260208201905092915050565b60005b83811015611e54578082015181840152602081019050611e39565b60008484015250505050565b6000601f19601f8301169050919050565b6000611e7c82611e1a565b611e868185611e25565b9350611e96818560208601611e36565b611e9f81611e60565b840191505092915050565b60006020820190508181036000830152611ec48184611e71565b905092915050565b6000819050919050565b611edf81611ecc565b8114611eea57600080fd5b50565b600081359050611efc81611ed6565b92915050565b600060208284031215611f1857611f17611d55565b5b6000611f2684828501611eed565b91505092915050565b600073ffffffffffffffffffffffffffffffffffffffff82169050919050565b6000611f5a82611f2f565b9050919050565b611f6a81611f4f565b82525050565b6000602082019050611f856000830184611f61565b92915050565b611f9481611f4f565b8114611f9f57600080fd5b50565b600081359050611fb181611f8b565b92915050565b60008060408385031215611fce57611fcd611d55565b5b6000611fdc85828601611fa2565b9250506020611fed85828601611eed565b9150509250929050565b6000806000606084860312156120105761200f611d55565b5b600061201e86828701611fa2565b935050602061202f86828701611fa2565b925050604061204086828701611eed565b9150509250925092565b6000602082840312156120605761205f611d55565b5b600061206e84828501611fa2565b91505092915050565b61208081611ecc565b82525050565b600060208201905061209b6000830184612077565b92915050565b6120aa81611de4565b81146120b557600080fd5b50565b6000813590506120c7816120a1565b92915050565b600080604083850312156120e4576120e3611d55565b5b60006120f285828601611fa2565b9250506020612103858286016120b8565b9150509250929050565b600080fd5b600080fd5b7f4e487b7100000000000000000000000000000000000000000000000000000000600052604160045260246000fd5b61214f82611e60565b810181811067ffffffffffffffff8211171561216e5761216d612117565b5b80604052505050565b6000612181611d4b565b905061218d8282612146565b919050565b600067ffffffffffffffff8211156121ad576121ac612117565b5b6121b682611e60565b9050602081019050919050565b82818337600083830152505050565b60006121e56121e084612192565b612177565b90508281526020810184848401111561220157612200612112565b5b61220c8482856121c3565b509392505050565b600082601f8301126122295761222861210d565b5b81356122398482602086016121d2565b91505092915050565b6000806000806080858703121561225c5761225b611d55565b5b600061226a87828801611fa2565b945050602061227b87828801611fa2565b935050604061228c87828801611eed565b925050606085013567ffffffffffffffff8111156122ad576122ac611d5a565b5b6122b987828801612214565b91505092959194509250565b600080604083850312156122dc576122db611d55565b5b60006122ea85828601611fa2565b92505060206122fb85828601611fa2565b9150509250929050565b7f4e487b7100000000000000000000000000000000000000000000000000000000600052602260045260246000fd5b6000600282049050600182168061234c57607f821691505b60208210810361235f5761235e612305565b5b50919050565b7f4552433732313a20617070726f76616c20746f2063757272656e74206f776e6560008201527f7200000000000000000000000000000000000000000000000000000000000000602082015250565b60006123c1602183611e25565b91506123cc82612365565b604082019050919050565b600060208201905081810360008301526123f0816123b4565b9050919050565b7f4552433732313a20617070726f76652063616c6c6572206973206e6f7420746f60008201527f6b656e206f776e6572206f7220617070726f76656420666f7220616c6c000000602082015250565b6000612453603d83611e25565b915061245e826123f7565b604082019050919050565b6000602082019050818103600083015261248281612446565b9050919050565b7f4552433732313a2063616c6c6572206973206e6f7420746f6b656e206f776e6560008201527f72206f7220617070726f76656400000000000000000000000000000000000000602082015250565b60006124e5602d83611e25565b91506124f082612489565b604082019050919050565b60006020820190508181036000830152612514816124d8565b9050919050565b7f4552433732313a20696e76616c696420746f6b656e2049440000000000000000600082015250565b6000612551601883611e25565b915061255c8261251b565b602082019050919050565b6000602082019050818103600083015261258081612544565b9050919050565b7f4552433732313a2061646472657373207a65726f206973206e6f74206120766160008201527f6c6964206f776e65720000000000000000000000000000000000000000000000602082015250565b60006125e3602983611e25565b91506125ee82612587565b604082019050919050565b60006020820190508181036000830152612612816125d6565b9050919050565b7f416c726561647920616374697661746564000000000000000000000000000000600082015250565b600061264f601183611e25565b915061265a82612619565b602082019050919050565b6000602082019050818103600083015261267e81612642565b9050919050565b7f4f6e6c79206f776e65722063616e206163746976617465204e46540000000000600082015250565b60006126bb601b83611e25565b91506126c682612685565b602082019050919050565b600060208201905081810360008301526126ea816126ae565b9050919050565b600081905092915050565b600061270782611e1a565b61271181856126f1565b9350612721818560208601611e36565b80840191505092915050565b600061273982856126fc565b915061274582846126fc565b91508190509392505050565b7f4f776e61626c653a206e6577206f776e657220697320746865207a65726f206160008201527f6464726573730000000000000000000000000000000000000000000000000000602082015250565b60006127ad602683611e25565b91506127b882612751565b604082019050919050565b600060208201905081810360008301526127dc816127a0565b9050919050565b7f4552433732313a207472616e736665722066726f6d20696e636f72726563742060008201527f6f776e6572000000000000000000000000000000000000000000000000000000602082015250565b600061283f602583611e25565b915061284a826127e3565b604082019050919050565b6000602082019050818103600083015261286e81612832565b9050919050565b7f4552433732313a207472616e7366657220746f20746865207a65726f2061646460008201527f7265737300000000000000000000000000000000000000000000000000000000602082015250565b60006128d1602483611e25565b91506128dc82612875565b604082019050919050565b60006020820190508181036000830152612900816128c4565b9050919050565b7f4f776e61626c653a2063616c6c6572206973206e6f7420746865206f776e6572600082015250565b600061293d602083611e25565b915061294882612907565b602082019050919050565b6000602082019050818103600083015261296c81612930565b9050919050565b7f4552433732313a20617070726f766520746f2063616c6c657200000000000000600082015250565b60006129a9601983611e25565b91506129b482612973565b602082019050919050565b600060208201905081810360008301526129d88161299c565b9050919050565b7f4552433732313a207472616e7366657220746f206e6f6e20455243373231526560008201527f63656976657220696d706c656d656e7465720000000000000000000000000000602082015250565b6000612a3b603283611e25565b9150612a46826129df565b604082019050919050565b60006020820190508181036000830152612a6a81612a2e565b9050919050565b7f4e487b7100000000000000000000000000000000000000000000000000000000600052601260045260246000fd5b7f42617463682073697a65206d7573742062652031000000000000000000000000600082015250565b6000612ad6601483611e25565b9150612ae182612aa0565b602082019050919050565b60006020820190508181036000830152612b0581612ac9565b9050919050565b600081519050919050565b600082825260208201905092915050565b6000612b3382612b0c565b612b3d8185612b17565b9350612b4d818560208601611e36565b612b5681611e60565b840191505092915050565b6000608082019050612b766000830187611f61565b612b836020830186611f61565b612b906040830185612077565b8181036060830152612ba28184612b28565b905095945050505050565b600081519050612bbc81611d8b565b92915050565b600060208284031215612bd857612bd7611d55565b5b6000612be684828501612bad565b91505092915050565b7f4552433732313a206d696e7420746f20746865207a65726f2061646472657373600082015250565b6000612c25602083611e25565b9150612c3082612bef565b602082019050919050565b60006020820190508181036000830152612c5481612c18565b9050919050565b7f4552433732313a20746f6b656e20616c7265616479206d696e74656400000000600082015250565b6000612c91601c83611e25565b9150612c9c82612c5b565b602082019050919050565b60006020820190508181036000830152612cc081612c84565b905091905056fea264697066735822122034dd8f5c3a979a0ff19f7278c002f36c85f57749fb88c221d17cf61a14ccaaf464736f6c63430008120033",
  "linkReferences": {},
  "deployedLinkReferences": {}
}